:020000040800F2
:1000000000500020C91600089D0E0008A50E00082B
:10001000AD0E0008B50E0008BD0E0008000000007F
:10002000000000000000000000000000C50E0008F5
:10003000D10E000800000000DD0E0008E90E0008E7
:1000400011170008111700081117000811170008F0
:1000500011170008111700081117000811170008E0
:1000600011170008111700081117000811170008D0
:1000700011170008111700081117000811170008C0
:10008000F50E0008111700081117000811170008D5
:10009000090F000811170008111700081D0F0008AC
:1000A0001117000811170008111700081117000890
:1000B000510F000811170008111700081117000848
:1000C0001117000811170008111700081117000870
:1000D0001117000811170008111700081117000860
:1000E0001117000811170008111700080000000080
:1000F0000000000000000000000000000000000000
:0C01000000000000000000005FF808F1A3
:10010C0010B5054C237833B9044B13B10448AFF345
:10011C0000800123237010BD6C0100200000000042
:10012C0080AA000808B5034B1BB103490348AFF381
:10013C00008008BD000000007001002080AA0008AB
:10014C0080B582B000AF0C4B5B690B4A43F00103E6
:10015C005361094B5B6903F001037B607B680022F0
:10016C000021102001F02DFC102001F046FC00BFF6
:10017C000837BD4680BD00BF0010024080B588B076
:10018C0000AF07F1100300221A605A609A60DA601F
:10019C003E4B9B693D4A43F0200393613B4B9B696B
:1001AC0003F02003FB60FB68384B9B69374A43F034
:1001BC0004039361354B9B6903F00403BB60BB687C
:1001CC00324B9B69314A43F0080393612F4B9B6977
:1001DC0003F008037B607B6801220E212C4802F09F
:1001EC0028F801224FF440612A4802F022F80E232D
:1001FC003B6101237B610023BB610223FB6107F19F
:10020C0010031946224801F079FE80233B6100233C
:10021C007B610123BB6107F1100319461C4801F0F7
:10022C006DFE4FF440633B6101237B610023BB6196
:10023C000223FB6107F110031946164801F05EFE1C
:10024C004FF421433B6100237B610123BB6107F128
:10025C00100319460F4801F051FE20233B610E4B51
:10026C007B610123BB6107F110031946094801F0BA
:10027C0045FE00220021172001F0A3FB172001F0FE
:10028C00BCFB00BF2037BD4680BD00BF0010024044
:10029C0000080140000C01400000211080B500AFA7
:1002AC00124B134A1A60114B124A5A600F4B002220
:1002BC009A600E4B0022DA600C4B4FF480421A61AC
:1002CC000A4B00225A61094B00229A61074B00220B
:1002DC00DA61064B00221A62044801F0E5FF03467E
:1002EC00002B01D000F02CFB00BF80BD880100204A
:1002FC0000540040A086010080B588B000AF786043
:10030C0007F1100300221A605A609A60DA607B6869
:10031C001B68154A934223D1144B9B69134A43F033
:10032C0008039361114B9B6903F00803FB60FB68A6
:10033C00C0233B6112237B610323FB6107F1100394
:10034C0019460B4801F0DAFD084BDB69074A43F408
:10035C000013D361054BDB6903F40013BB60BB686E
:10036C0000BF2037BD4680BD005400400010024045
:10037C00000C014080B584B000AF0023FB60D0E1DD
:10038C0001224FF40061A64801F053FF01224FF403
:10039C008061A34801F04DFF01220821A14801F022
:1003AC0048FF012204219F4801F043FF0122022152
:1003BC009C4801F03EFFFB68002B05D100224FF456
:1003CC000061974801F035FFFB68012B05D1002235
:1003DC004FF48061924801F02CFFFB68022B04D192
:1003EC00002208218F4801F024FFFB68032B04D165
:1003FC00002204218B4801F01CFFFB68042B04D164
:10040C0000220221874801F014FF0A2001F0DEF9D6
:10041C000023BB60FDE0BB68002B3BD14FF40051C7
:10042C007F4801F0EFFE0346002B33D17E4AFB6878
:10043C009B001A44BB6813441B78002B2AD17A4AC0
:10044C00FB689B001A44BB68134401221A70774A5C
:10045C00FB689B001A44BB6813441B78002B19D112
:10046C00734AFB689B001A44BB6813441A78714B9F
:10047C001A70704B1A78704B9A7008226E496F483C
:10048C0008F01AFE694AFB689B001A44BB681344C7
:10049C0001221A70BB68012B3BD14FF4004160481C
:1004AC0001F0B0FE0346002B33D15F4AFB689B0082
:1004BC001A44BB6813441B78002B2AD15A4AFB6898
:1004CC009B001A44BB68134401221A70574AFB68FC
:1004DC009B001A44BB6813441B78002B19D1544A57
:1004EC00FB689B001A44BB6813441A78514B1A7072
:1004FC00504B1A78504B9A7008224F494F4808F0CD
:10050C00DBFD4A4AFB689B001A44BB68134401227A
:10051C001A70BB68022B3BD14FF48071404801F03C
:10052C0071FE0346002B33D13F4AFB689B001A44F3
:10053C00BB6813441B78002B2AD13B4AFB689B00F9
:10054C001A44BB68134401221A70384AFB689B009A
:10055C001A44BB6813441B78002B19D1344AFB682E
:10056C009B001A44BB6813441A78324B1A70314BF7
:10057C001A78314B9A7008222F49304808F09CFDAC
:10058C002A4AFB689B001A44BB68134401221A7068
:10059C00BB68032B3AD18021224801F033FE03467D
:1005AC00002B33D1204AFB689B001A44BB681344D0
:1005BC001B78002B2AD11C4AFB689B001A44BB6891
:1005CC00134401221A70194AFB689B001A44BB6839
:1005DC0013441B78002B19D1154AFB689B001A4455
:1005EC00BB6813441A78134B1A70124B1A78124BBF
:1005FC009A7008221049114808F05EFD0B4AFB68FE
:10060C009B001A44BB68134401221A70BB68013367
:10061C00BB60BB68032B7FF7FEAE00237B607AE0E8
:10062C00000C014000080140E8010020FC01002002
:10063C0000000020E4010020DC010020280B002039
:10064C004FF40051404801F0DDFD0346012B0FD162
:10065C003E4AFB6812F82330012B09D13B4AFB6858
:10066C00002102F823103A4AFB68002102F82310FB
:10067C004FF40041344801F0C5FD0346012B12D163
:10068C00324AFB689B0013445B78012B0BD12F4A39
:10069C00FB689B00134400225A702D4AFB689B0098
:1006AC00134400225A704FF48071274801F0AAFDC0
:1006BC000346012B12D1254AFB689B0013449B78FF
:1006CC00012B0BD1214AFB689B00134400229A702A
:1006DC001F4AFB689B00134400229A7080211D481E
:1006EC0001F090FD0346012B12D1184AFB689B00C8
:1006FC001344DB78012B0BD1144AFB689B00134489
:10070C000022DA70124AFB689B0013440022DA7054
:10071C007B6801337B607B68032B91DDFB680133C5
:10072C00FB60FB68042B7FF72BAE0B4B00229A70FF
:10073C0008220949094808F0BFFC322001F046F8AC
:10074C0000BF1037BD4680BD000C0140E801002001
:10075C00FC01002000080140DC010020280B0020D7
:10076C0080B582B000AF00F0CFFF00F08FF8FFF73C
:10077C0005FDFFF7E5FCFFF791FD00F0A5FC09F086
:10078C0087FD00F0EFFB00F045FC00F007F93C2181
:10079C003A4805F021F800F05DF9394B1B78C3F1AC
:1007AC008003DA0F13445B10D8B20023344A0021C3
:1007BC0000F01DFB00F05AF9304B1B685B6AFB80A4
:1007CC00FB88D8B2FB1C3A1D791D00F0EBFE7B793F
:1007DC003979FA78184600F037FE00F053FE0A20FB
:1007EC0000F0F4FF274B1B78002B02D1FFF7C2FD62
:1007FC00F8E7244B1B78012B27D1204B1B685B6A35
:10080C00FB80FB88D8B2FB1C3A1D791D00F0CAFE98
:10081C007B793979FA78184600F016FE00F032FE32
:10082C000A2000F0D3FF00F015F9174B1B78C3F129
:10083C008003DA0F13445B10D8B20023124A002154
:10084C0000F0D5FA00F012F9CCE70E4B1B78022B16
:10085C00C8D100F0FFF80A4B1B78C3F18003DA0F04
:10086C0013445B10D8B20023054A002100F0BFFAF4
:10087C0000F0FCF8034B00221A70B3E79C06002032
:10088C00D4AE000810020020DCB2000880B594B091
:10089C0000AF07F128032822002118460AF0B0F80F
:1008AC0007F1140300221A605A609A60DA601A6128
:1008BC003B1D00221A605A609A60DA600123BB6209
:1008CC004FF48033FB6200233B630123BB630223A1
:1008DC007B644FF48033BB644FF4E013FB6407F18B
:1008EC002803184603F0C6FE0346002B01D000F087
:1008FC0027F80F237B610223BB610023FB614FF4BC
:10090C0080633B6200237B6207F1140302211846CB
:10091C0004F032F90346002B01D000F011F810233B
:10092C007B6000233B613B1D184604F09FFA034695
:10093C00002B01D000F004F800BF5037BD4680BD3D
:10094C0080B400AF72B600BF00BFFDE780B584B0C5
:10095C0002AF78600B46FB70FB789BB24FF0FF3216
:10096C0000927A687821034801F0E2FD00BF083755
:10097C00BD4680BD8801002080B582B000AF034623
:10098C00FB71054AFB79537002210348FFF7DEFF28
:10099C0000BF0837BD4680BD1406002080B500AFEF
:1009AC00AE20FFF7E9FF2020FFF7E6FF1020FFF74E
:1009BC00E3FFB020FFF7E0FFC820FFF7DDFF0020CA
:1009CC00FFF7DAFF1020FFF7D7FF4020FFF7D4FF27
:1009DC008120FFF7D1FFDF20FFF7CEFFA120FFF72B
:1009EC00CBFFA620FFF7C8FFA820FFF7C5FF3F20CD
:1009FC00FFF7C2FFA420FFF7BFFFD320FFF7BCFF18
:100A0C000020FFF7B9FFD520FFF7B6FFF020FFF766
:100A1C00B3FFD920FFF7B0FF2220FFF7ADFFDA209C
:100A2C00FFF7AAFF1220FFF7A7FFDB20FFF7A4FFB9
:100A3C002020FFF7A1FF8D20FFF79EFF1420FFF76A
:100A4C009BFF00F007F800F011F8AF20FFF794FFC0
:100A5C0000BF80BD80B500AF4FF48062002102481A
:100A6C0009F0CEFF00BF80BD1402002080B582B01B
:100A7C0000AF154B40221A700023FB711BE0FB7971
:100A8C00503BDBB21846FFF777FF0020FFF774FFEF
:100A9C001020FFF771FF0D48FB79DB010C4A134462
:100AAC008022194609F0D8FF81210748FFF74EFF35
:100ABC00FB790133FB71FB79072BE0D900BF00BF39
:100ACC000837BD4680BD00BF18060020190600205F
:100ADC001402002090B482B000AF044608461146C0
:100AEC001A462346FB710346BB710B467B711346BA
:100AFC003B71FB79072B5FD897F90630002B5BDB3A
:100B0C003B7D002B02D07B79DB437B713B7C01333B
:100B1C00FF2202FA03F35AB297F9053013435AB283
:100B2C003B79C3F10803FF2141FA03F35BB2134392
:100B3C005BB2DAB2234B1A70FA79BB792249D20133
:100B4C000A44134418781F4B1978FA79BB79014081
:100B5C00C8B21D49D2010A44134402461A703B7CA8
:100B6C000133FF2202FA03F35BB2DB435AB297F96B
:100B7C00053013405AB23B79C3F108036FF0FF0103
:100B8C0041FA03F35BB213405BB2DAB20D4B1A704D
:100B9C00FA79BB790C49D2010A4413441878094BF1
:100BAC001978FA79BB790143C8B20749D2010A44D2
:100BBC00134402461A7000E000BF0837BD4690BCD3
:100BCC00704700BF9906002014020020B0B586B013
:100BDC0002AF0446084611461A462346FB710346EB
:100BEC00BB710B467B7113463B71BB79DB08FB7306
:100BFC00BB7903F00703BB73BA7B3B791344082B17
:100C0C0029DD7A79BB7B02FA03F3DAB2BC7BF97982
:100C1C00F87B97F820300193072300932346FFF7C6
:100C2C0059FFFB7B0133D8B27A79BB7BC3F1080344
:100C3C0042FA03F3DCB23A79BB7B1344DBB2093BD7
:100C4C00DBB2F97997F82020019200930023224619
:100C5C00FFF740FF15E07A79BB7B02FA03F3DCB2B5
:100C6C00BA7B3B791344DBB2013BDBB2BD7BF97938
:100C7C00F87B97F82020019200932B462246FFF731
:100C8C0029FF00BF1037BD46B0BD90B587B002AF8D
:100C9C000446084611461A462346FB710346BB71AF
:100CAC000B467B7113463B71BB79DB08FB73BB793D
:100CBC0003F00703BB737A79BB7B02FA03F3DAB256
:100CCC00BC7BF979F87B3B7901930723009323468E
:100CDC00FFF700FFBB7B002B14D0FB7B0133D8B29A
:100CEC007A79BB7BC3F1080342FA03F3DCB2BB7B1A
:100CFC00013BDBB2F9793A79019200930023224649
:100D0C00FFF7E8FE00BF1437BD4690BD90B587B025
:100D1C0002AF3A601A460346FB710B46BB71134691
:100D2C007B7197F82030DB083B7397F8203003F089
:100D3C000703FB720023FB7325E00023BB731BE04E
:100D4C00FA79FB7B1344D8B2BB7BDB00DAB2BB79FC
:100D5C001344DCB2FA7BBB7B797901FB03F31344BC
:100D6C001A463B6813441A7897F824302146FFF74B
:100D7C008CFFBB7B0133BB73BA7B3B7B9A42DFD3CB
:100D8C00FB7B0133FB73FA7B7B799A42D5D3FB7ADD
:100D9C00002B28D07B799BB23A7B92B202FB03F3F7
:100DAC003B8100237B731AE0FA797B7B1344D8B226
:100DBC003B7BDB00DAB2BB791344D9B23A897B7B3B
:100DCC0013441A463B6813441A78FC7A97F824307B
:100DDC0000932346FFF7FAFE7B7B01337B737A7B10
:100DEC007B799A42E0D300BF1437BD4690BDB0B5B5
:100DFC0084B002AF3A601A460346FB710B46BB71D6
:100E0C0013467B713B685C683B681D783B685B787C
:100E1C00B979F8797A79019200932B462246FFF73B
:100E2C0075FF00BF0837BD46B0BD000080B485B06B
:100E3C0000AF154B9B69144A43F001039361124BAD
:100E4C009B6903F00103BB60BB680F4BDB690E4A67
:100E5C0043F08053D3610C4BDB6903F080537B6010
:100E6C007B680A4B5B68FB60FB6823F0E063FB600C
:100E7C00FB6843F00073FB60044AFB68536000BFDF
:100E8C001437BD4680BC7047001002400000014082
:100E9C0080B400AF00BFFDE780B400AF00BFFDE73A
:100EAC0080B400AF00BFFDE780B400AF00BFFDE72A
:100EBC0080B400AF00BFFDE780B400AF00BFBD46FB
:100ECC0080BC704780B400AF00BFBD4680BC70478B
:100EDC0080B400AF00BFBD4680BC704780B500AF8A
:100EEC0000F058FC00BF80BD80B500AF024800F098
:100EFC00D1FE00BF80BD00BF7407002080B500AFDD
:100F0C00024801F089FF00BF80BD00BFEC0F00203C
:100F1C0080B500AF094B1B785A1C094B83FB02317F
:100F2C00D317C91A0B465B000B44D11ACAB2034B38
:100F3C001A70202001F096F900BF80BD100200202D
:100F4C005655555580B500AF024804F0D3FC00BF90
:100F5C0080BD00BFE406002080B400AF00BFBD46DA
:100F6C0080BC704780B58CB000AF07F10C03242215
:100F7C000021184609F044FD3B1D00221A605A60FE
:100F8C00224B234A1A60214B00225A601F4B00222D
:100F9C009A601E4B4FF6FF72DA601C4B00221A61EE
:100FAC001A4B00225A61194B00229A610123FB60F3
:100FBC0000233B6101237B610023BB610023FB61A8
:100FCC0000233B6201237B620023BB620023FB6294
:100FDC0007F10C0319460D4804F05CFB0346002B8B
:100FEC0001D0FFF7ADFC00237B600023BB603B1DF1
:100FFC001946064805F014FB0346002B01D0FFF7F9
:10100C009FFC00BF3037BD4680BD00BF9C06002052
:10101C00002C014080B58AB000AF07F120030022FC
:10102C001A605A603B1D00221A605A609A60DA609E
:10103C001A615A619A61234B4FF080421A60214B1E
:10104C0042F20F725A601F4B00229A601D4B42F203
:10105C00CF02DA601B4B00221A611A4B00229A61F4
:10106C00184804F008F80346002B01D0FFF768FC81
:10107C0000233B6200237B6207F1200319461148D1
:10108C0005F0CEFA0346002B01D0FFF759FC0023E4
:10109C007B600023BB600023FB6000237B613B1D56
:1010AC0004221946074804F015FD0346002B01D015
:1010BC00FFF746FC034800F031F900BF2837BD4666
:1010CC0080BD00BFE406002080B58EB000AF07F1F4
:1010DC00280300221A605A609A60DA6007F1200334
:1010EC0000221A605A603B1D00221A605A609A60F6
:1010FC00DA601A615A619A612C4B2D4A1A602B4B9B
:10110C0000225A60294B00229A60284B5922DA603F
:10111C00264B00221A61254B00229A61234803F0CA
:10112C005BFF0346002B01D0FFF70AFC4FF4805302
:10113C00BB6207F1280319461C4804F0E9FD03467D
:10114C00002B01D0FFF7FCFB184803F0E3FF03462C
:10115C00002B01D0FFF7F4FB00233B6200237B62E2
:10116C0007F120031946114805F05AFA0346002BE3
:10117C0001D0FFF7E5FB60237B600023BB600023FD
:10118C00FB6000237B613B1D00221946074804F0DD
:10119C00FDFC0346002B01D0FFF7D2FB034800F007
:1011AC00BDF800BF3837BD4680BD00BF2C070020FE
:1011BC000004004080B588B000AF786007F11003E0
:1011CC0000221A605A609A60DA607B681B68164AC3
:1011DC00934224D1154B9B69144A43F400639361E9
:1011EC00124B9B6903F40063FB60FB680F4B9B691C
:1011FC000E4A43F0040393610C4B9B6903F0040308
:10120C00BB60BB684FF440733B6100237B610023E0
:10121C00BB6107F110031946054800F06FFE00BFD3
:10122C002037BD4680BD00BF002C0140001002409D
:10123C000008014080B584B000AF78607B681B6803
:10124C00B3F1804F13D10C4BDB690B4A43F0010314
:10125C00D361094BDB6903F00103FB60FB680022DF
:10126C0000211C2000F0ADFB1C2000F0C6FB00BFD1
:10127C001037BD4680BD00BF0010024080B584B061
:10128C0000AF78607B681B68204A934239D1204BB1
:10129C00DB691F4A43F00203D3611D4BDB6903F08A
:1012AC000203FB60FB681B4B1B4A1A60194B102294
:1012BC005A60184B00229A60164B8022DA60154B4C
:1012CC004FF480721A61134B4FF480625A61114BC8
:1012DC0000229A610F4B0022DA610E4800F0A8FB45
:1012EC000346002B01D0FFF72BFB7B68094A5A629F
:1012FC00084A7B6853627B68064A9A63054A7B6896
:10130C00536200BF1037BD4680BD00BF00040040D3
:10131C0000100240740700206C00024080B58AB0B7
:10132C0000AF786007F1140300221A605A609A60CB
:10133C00DA607B681B68B3F1804F2AD1254B9B691F
:10134C00244A43F008039361224B9B6903F0080382
:10135C003B613B6908237B610223BB6102233B6237
:10136C0007F1140319461C4800F0C8FD1B4B5B68C1
:10137C007B627B6A23F440737B627B6A43F0E0639D
:10138C007B627B6A43F480737B62144A7B6A536092
:10139C001CE07B681B68124A934217D10D4B9B696A
:1013AC000C4A43F0040393610A4B9B6903F004035A
:1013BC00FB60FB6840237B610223BB6103233B6220
:1013CC0007F114031946074800F098FD00BF2837B1
:1013DC00BD4680BD00100240000C014000000140E1
:1013EC00000400400008014090B482B000AF0446F5
:1013FC00084611461A462346FB710346BB710B4641
:10140C007B7113463B71FA790E4913465B0013440A
:10141C000B44BA791A70FA790A4913465B001344E3
:10142C000B4401337A791A70FA79064913465B003A
:10143C0013440B4402333A791A7000BF0837BD4687
:10144C0090BC7047B807002080B584B000AF03464D
:10145C00FB710B46BB7113467B710023FB7308E0D9
:10146C007B79BA79F979F87BFFF7BEFFFB7B013307
:10147C00FB73FB7B102BF3D900BF00BF1037BD46AD
:10148C0080BD000080B584B000AF0023FB6069E034
:10149C004149FA6813465B0013440B441B78FB71FB
:1014AC003D49FA6813465B0013440B4401331B7827
:1014BC00BB713949FA6813465B0013440B44023381
:1014CC001B787B710023BB6046E0BA798021BB6836
:1014DC0041FA03F31340002B01D03C2100E01E2104
:1014EC00FA6813465B001344DB001A46BB681344CE
:1014FC002A4A22F81310FA798021BB6841FA03F3C7
:10150C001340002B01D03C2100E01E21FA68134649
:10151C005B001344DB0003F10802BB6813441F4A51
:10152C0022F813107A798021BB6841FA03F3134037
:10153C00002B01D03C2100E01E21FA6813465B0011
:10154C001344DB0003F11002BB681344134A22F866
:10155C001310BB680133BB60BB68072BB5DDFB68A0
:10156C000133FB60FB68102B92DD0C4B0022A3F8BF
:10157C00662000210A4803F0C7FF094B1B680022B4
:10158C005A6240F29913054A0021054803F01AFEED
:10159C0000BF1037BD4680BDB8070020EC07002007
:1015AC002C07002080B487B000AFB9607A603B6034
:1015BC000346FB73FA7B3E4BA3FB021359090B4604
:1015CC009B000B44DB00D31AFB73FB7B0C2B1FD84B
:1015DC00FA7B13461B029B1A364A82FB03129210AB
:1015EC00DB179B1ADBB2013BDAB2BB681A70FA7BD1
:1015FC0013461B029B1A2F4A82FB03129210DB1715
:10160C00D31ADAB27B681A703B6800221A7049E070
:10161C00FB7B192B22D8FB7B0D3BBB75BB680022D7
:10162C001A70BA7D13461B029B1A224A82FB0312C4
:10163C009210DB179B1ADBB2013BDAB27B681A7093
:10164C00BA7D13461B029B1A1A4A82FB0312921094
:10165C00DB17D31ADAB23B681A7023E0FB7B1A3B18
:10166C00FB75FA7D13461B029B1A134A82FB03126D
:10167C001A44D210DB17D31ADAB2BB681A707B6823
:10168C0000221A70FA7D13461B029B1A0A4A82FB2F
:10169C0003121A44D210DB179B1ADBB2013BDAB2ED
:1016AC003B681A7000BF1C37BD4680BC704700BF3A
:1016BC00CDCCCCCC4FECC44E93244992FFF74CFCD0
:1016CC000B480C490C4A002302E0D458C450043394
:1016DC00C4188C42F9D3094A094C002301E0136069
:1016EC000432A242FBD309F093F9FFF739F87047A3
:1016FC00000000206C01002018B300086C010020D1
:10170C00D8120020FEE7000080B500AF084B1B6824
:10171C00074A43F010031360032000F047F90F2031
:10172C0000F008F8FFF782FB0023184680BD00BFCD
:10173C000020024080B582B000AF7860124B1A686E
:10174C00124B1B7819464FF47A73B3FBF1F3B2FBCF
:10175C00F3F3184600F05FF90346002B01D0012388
:10176C000EE07B680F2B0AD8002279684FF0FF300F
:10177C0000F027F9064A7B681360002300E0012380
:10178C0018460837BD4680BD140000201C00002000
:10179C001800002080B400AF054B1B781A46054B8F
:1017AC001B681344034A136000BFBD4680BC7047DE
:1017BC001C000020200B002080B400AF024B1B68E3
:1017CC001846BD4680BC7047200B002080B584B005
:1017DC0000AF7860FFF7F0FFB8607B68FB60FB68D8
:1017EC00B3F1FF3F05D00A4B1B781A46FB68134434
:1017FC00FB6000BFFFF7E0FF0246BB68D31AFA6834
:10180C009A42F7D800BF00BF1037BD4680BD00BF5D
:10181C001C00002080B485B000AF78607B6803F0BA
:10182C000703FB600C4BDB68BB60BA684FF6FF0329
:10183C001340BB60FB681A02BB68134343F0BF63E1
:10184C0043F40033BB60044ABB68D36000BF143759
:10185C00BD4680BC704700BF00ED00E080B400AF17
:10186C00044BDB681B0A03F007031846BD4680BC1B
:10187C00704700BF00ED00E080B483B000AF0346BA
:10188C00FB7197F90730002B0BDBFB7903F01F0280
:10189C00064997F907305B09012000FA02F241F87A
:1018AC00232000BF0C37BD4680BC704700E100E030
:1018BC0080B483B000AF03463960FB7197F90730F1
:1018CC00002B0ADB3B68DAB20C4997F9073012019E
:1018DC00D2B20B4483F800230AE03B68DAB2084921
:1018EC00FB7903F00F03043B1201D2B20B441A76BE
:1018FC0000BF0C37BD4680BC704700BF00E100E064
:10190C0000ED00E080B489B000AFF860B9607A6097
:10191C00FB6803F00703FB61FB69C3F10703042BAE
:10192C0028BF0423BB61FB690433062B02D9FB6976
:10193C00033B00E000237B614FF0FF32BB6902FAEE
:10194C0003F3DA43BB681A407B699A404FF0FF31CE
:10195C007B6901FA03F3D9437B680B4013431846A8
:10196C002437BD4680BC704780B582B000AF78602C
:10197C007B68013BB3F1807F01D301230FE00A4A5E
:10198C007B68013B53600F214FF0FF30FFF790FF56
:10199C00054B00229A60044B07221A60002318465C
:1019AC000837BD4680BD00BF10E000E080B582B0B6
:1019BC0000AF78607868FFF72DFF00BF0837BD4691
:1019CC0080BD80B586B000AF0346B9607A60FB730A
:1019DC0000237B61FFF742FF78617A68B968786908
:1019EC00FFF790FF024697F90F3011461846FFF7A4
:1019FC005FFF00BF1837BD4680BD80B582B000AF19
:101A0C000346FB7197F907301846FFF735FF00BF07
:101A1C000837BD4680BD80B582B000AF786078686D
:101A2C00FFF7A2FF034618460837BD4680BD0000ED
:101A3C0080B485B000AF78600023FB607B68002B1E
:101A4C0001D1012343E07B681B681A46224B1344E7
:101A5C00224AA2FB03231B099A007B681A647B6849
:101A6C001F4ADA637B68022283F821207B681B689B
:101A7C001B68FB60FB6823F47F5323F03003FB608F
:101A8C007B685A687B689B681A437B68DB681A43DF
:101A9C007B681B691A437B685B691A437B689B698B
:101AAC001A437B68DB691343FA681343FB607B685A
:101ABC001B68FA681A607B6800229A637B680122B3
:101ACC0083F821207B68002283F82020002318460D
:101ADC001437BD4680BC7047F8FFFDBFCDCCCCCCD5
:101AEC000000024080B586B000AFF860B9607A6043
:101AFC003B600023FB75FB6893F82030012B01D170
:101B0C0002234BE0FB68012283F82020FB6893F84A
:101B1C002130DBB2012B3AD1FB68022283F8212061
:101B2C00FB6800229A63FB681B681A68FB681B68D9
:101B3C0022F001021A603B687A68B968F86800F014
:101B4C00AFF9FB68DB6A002B08D0FB681B681A68CE
:101B5C00FB681B6842F00E021A600FE0FB681B6802
:101B6C001A68FB681B6822F004021A60FB681B6889
:101B7C001A68FB681B6842F00A021A60FB681B6853
:101B8C001A68FB681B6842F001021A6005E0FB68EA
:101B9C00002283F820200223FB75FB7D18461837A2
:101BAC00BD4680BD80B584B000AF78600023FB7368
:101BBC007B6893F82130DBB2022B05D07B680422C2
:101BCC009A630123FB7351E07B681B681A687B687E
:101BDC001B6822F00E021A607B681B681A687B680F
:101BEC001B6822F001021A607B681B68224A934230
:101BFC0029D07B681B68214A934222D07B681B68E2
:101C0C001F4A93421AD07B681B681E4A934212D01B
:101C1C007B681B681C4A93420AD07B681B681B4A72
:101C2C00934202D14FF480130EE04FF080730BE01F
:101C3C004FF4803308E04FF4805305E04FF4807389
:101C4C0002E0102300E00123114A53607B6801225B
:101C5C0083F821207B68002283F820207B685B6B53
:101C6C00002B03D07B685B6B78689847FB7B18462E
:101C7C001037BD4680BD00BF080002401C0002406A
:101C8C003000024044000240580002406C00024008
:101C9C000000024080B584B000AF78607B68DB6BDD
:101CAC001B68FB607B681B681B68BB607B681B6CDC
:101CBC0004229A40FB681340002B4FD0BB6803F002
:101CCC000403002B4AD07B681B681B6803F02003BD
:101CDC00002B07D17B681B681A687B681B6822F095
:101CEC0004021A607B681B68664A934229D07B68A1
:101CFC001B68654A934222D07B681B68634A9342F7
:101D0C001AD07B681B68624A934212D07B681B68AE
:101D1C00604A93420AD07B681B685F4A934202D1A7
:101D2C004FF480030EE04FF080630BE04FF4802300
:101D3C0008E04FF4804305E04FF4806302E0402359
:101D4C0000E00423554A53607B68DB6A002B00F0EB
:101D5C0094807B68DB6A786898478EE07B681B6CA4
:101D6C0002229A40FB681340002B56D0BB6803F04C
:101D7C000203002B51D07B681B681B6803F0200307
:101D8C00002B0BD17B681B681A687B681B6822F0E0
:101D9C000A021A607B68012283F821207B681B6889
:101DAC00384A934229D07B681B68374A934222D029
:101DBC007B681B68354A93421AD07B681B68344A8F
:101DCC00934212D07B681B68324A93420AD07B68DC
:101DDC001B68314A934202D14FF400130EE04FF0CE
:101DEC0000730BE04FF4003308E04FF4005305E0B0
:101DFC004FF4007302E0202300E00223274A5360D3
:101E0C007B68002283F820207B689B6A002B34D0EF
:101E1C007B689B6A786898472FE07B681B6C08226C
:101E2C009A40FB681340002B28D0BB6803F00803D2
:101E3C00002B23D07B681B681A687B681B6822F018
:101E4C000E021A607B681A6C7B68DB6B012101FA4D
:101E5C0002F25A607B6801229A637B68012283F844
:101E6C0021207B68002283F820207B681B6B002BD1
:101E7C0004D07B681B6B7868984700BF00BF103795
:101E8C00BD4680BD080002401C00024030000240EC
:101E9C0044000240580002406C0002400000024026
:101EAC0080B485B000AFF860B9607A603B60FB68C5
:101EBC001A6CFB68DB6B012101FA02F25A60FB68B9
:101ECC001B683A685A60FB685B68102B08D1FB688A
:101EDC001B687A689A60FB681B68BA68DA6007E06E
:101EEC00FB681B68BA689A60FB681B687A68DA60E2
:101EFC0000BF1437BD4680BC7047000080B48BB067
:101F0C0000AF7860396000237B6200233B6269E19B
:101F1C0001227B6A02FA03F3FB613B681B68FA69D6
:101F2C001340BB61BA69FB699A4240F058813B6827
:101F3C005B689A4A93425ED0984A934275D8984A05
:101F4C00934258D0964A93426FD8964A934252D0B5
:101F5C00944A934269D8944A93424CD0924A934201
:101F6C0063D8924A934246D0904A93425DD8122B42
:101F7C002AD8122B59D801A252F823F003200008BA
:101F8C00DD1F0008EF1F0008312000083720000873
:101F9C0037200008372000083720000837200008B9
:101FAC0037200008372000083720000837200008A9
:101FBC003720000837200008372000083720000899
:101FCC00E51F0008F91F0008794A934213D02CE052
:101FDC003B68DB683B6229E03B68DB6804333B62AF
:101FEC0024E03B68DB6808333B621FE03B68DB683E
:101FFC000C333B621AE03B689B68002B02D1042334
:10200C003B6213E03B689B68012B05D108233B62C4
:10201C007B68FA691A6109E008233B627B68FA69FC
:10202C005A6103E000233B6200E000BFBB69FF2B59
:10203C0001D87B6801E07B6804337B61BB69FF2BB3
:10204C0002D87B6A9B0002E07B6A083B9B003B61E9
:10205C007B691A680F213B6901FA03F3DB431A40D1
:10206C00396A3B6901FA03F31A437B691A603B68CE
:10207C005B6803F08053002B00F0B1804D4B9B69E3
:10208C004C4A43F0010393614A4B9B6903F00103F3
:10209C00BB60BB68484A7B6A9B08023352F823300A
:1020AC00FB607B6A03F003039B000F2202FA03F32D
:1020BC00DB43FA681340FB607B68404A934213D0C1
:1020CC007B683F4A93420DD07B683E4A934207D0CF
:1020DC007B683D4A934201D1032306E0042304E0CC
:1020EC00022302E0012300E000237A6A02F00302DB
:1020FC0092009340FA681343FB602F497B6A9B085C
:10210C000233FA6841F823203B685B6803F48013C0
:10211C00002B06D02D4B9A682C49BB6913438B605E
:10212C0006E02A4B9A68BB69DB43284913408B6055
:10213C003B685B6803F40013002B06D0234BDA6872
:10214C002249BB691343CB6006E0204BDA68BB69BC
:10215C00DB431E491340CB603B685B6803F40033E0
:10216C00002B06D0194B5A681849BB6913434B60B6
:10217C0006E0164B5A68BB69DB43144913404B60AD
:10218C003B685B6803F48033002B21D00F4B1A683B
:10219C000E49BB6913430B6021E000BF00003210F5
:1021AC00000031100000221000002110000012105D
:1021BC000000111000100240000001400008014016
:1021CC00000C0140001001400014014000040140CB
:1021DC000B4B1A68BB69DB43094913400B607B6AE4
:1021EC0001337B623B681A687B6A22FA03F3002B8B
:1021FC007FF48EAE00BF00BF2C37BD4680BC70474D
:10220C000004014080B485B000AF78600B467B8041
:10221C007B689A687B881340002B02D00123FB73E8
:10222C0001E00023FB73FB7B18461437BD4680BCD2
:10223C00704780B483B000AF78600B467B80134648
:10224C007B707B78002B03D07A887B681A6103E063
:10225C007B881A047B681A6100BF0C37BD4680BCB2
:10226C007047000080B582B000AF0346FB80084B7E
:10227C005A69FB881340002B06D0054AFB88536132
:10228C00FB88184600F006F800BF0837BD4680BD35
:10229C000004014080B483B000AF0346FB8000BF54
:1022AC000C37BD4680BC704780B584B000AF7860F9
:1022BC007B68002B01D101232BE17B6893F83D3027
:1022CC00DBB2002B06D17B68002283F83C207868B7
:1022DC00FEF712F87B68242283F83D207B681B688C
:1022EC001A687B681B6822F001021A607B681B6805
:1022FC001A687B681B6842F400421A607B681B6892
:10230C001A687B681B6822F400421A6002F07CFD9C
:10231C00F8607B685B68814A934207D8FB68804A07
:10232C00934294BF01230023DBB206E0FB687D4A95
:10233C00934294BF01230023DBB2002B01D0012375
:10234C00E7E0FB68784AA2FB03239B0CBB607B682D
:10235C001B685B6823F03F017B681B68BA680A4303
:10236C005A607B681B681B6A23F03F017B685B68C3
:10237C006A4A934202D8BB68013309E0BB684FF448
:10238C00967202FB03F3694AA2FB03239B090133F8
:10239C007A6812680B4313627B681B68DB6923F451
:1023AC004F4222F0FF027B685B685C498B4219D874
:1023BC00FB68591E7B685B685B00B1FBF3F3591C2F
:1023CC0040F6FC730B40002B0AD0FB68591E7B684F
:1023DC005B685B00B1FBF3F30133C3F30B0351E018
:1023EC0004234FE07B689B68002B11D1FB68581EBF
:1023FC007B6859680B465B000B44B0FBF3F301336D
:10240C00C3F30B03002B0CBF01230023DBB212E040
:10241C00FB68581E7B6859680B469B000B4499005F
:10242C000B44B0FBF3F30133C3F30B03002B0CBFD2
:10243C0001230023DBB2002B01D0012322E07B68B7
:10244C009B68002B0ED1FB68581E7B6859680B46A5
:10245C005B000B44B0FBF3F30133C3F30B0343F406
:10246C0000430FE0FB68581E7B6859680B469B00C5
:10247C000B4499000B44B0FBF3F30133C3F30B0390
:10248C0043F44043796809681343CB617B681B684C
:10249C001B6823F0C0017B68DA697B681B6A1A43EE
:1024AC007B681B680A431A607B681B689B6823F473
:1024BC00034323F0FF037A6811697A68D2681143E9
:1024CC007A6812680B4393607B681B68DB6823F0A7
:1024DC00FF017B685A697B689B691A437B681B68A0
:1024EC000A43DA607B681B681A687B681B6842F0D9
:1024FC0001021A607B6800221A647B68202283F830
:10250C003D207B6800221A637B68002283F83E2002
:10251C00002318461037BD4680BD00BFA0860100C1
:10252C007F841E00FF083D0083DE1B43D34D6210E9
:10253C0080B588B002AFF8607A601A460B467B8192
:10254C0013463B81FFF738F97861FB6893F83D300F
:10255C00DBB2202B40F0E0807B6900931923012231
:10256C007049F86800F064F90346002B01D002238F
:10257C00D3E0FB6893F83C30012B01D10223CCE073
:10258C00FB68012283F83C20FB681B681B6803F086
:10259C000103012B07D0FB681B681A68FB681B68DA
:1025AC0042F001021A60FB681B681A68FB681B6822
:1025BC0022F400621A60FB68212283F83D20FB683C
:1025CC00102283F83E20FB6800221A64FB687A68AC
:1025DC005A62FB683A895A85FB685B8D9AB2FB6834
:1025EC001A85FB68504ADA6279897B693A6AF8681D
:1025FC0000F09CF80346002B01D001238DE0002352
:10260C003B61FB681B685B693B61FB681B689B69F2
:10261C003B613B6966E07A69396AF86800F022FA36
:10262C000346002B0DD0FB681B6C042B07D1FB68F9
:10263C001B681A68FB681B6842F400721A6001235D
:10264C006BE0FB685B6A1A78FB681B681A61FB68B5
:10265C005B6A5A1CFB685A62FB685B8D9BB2013B40
:10266C009AB2FB685A85FB681B8D013B9AB2FB68DA
:10267C001A85FB681B685B6903F00403042B1BD1F0
:10268C00FB681B8D002B17D0FB685B6A1A78FB6804
:10269C001B681A61FB685B6A5A1CFB685A62FB6810
:1026AC005B8D9BB2013B9AB2FB685A85FB681B8D14
:1026BC00013B9AB2FB681A857A69396AF86800F0AE
:1026CC0019FA0346002B0DD0FB681B6C042B07D1A9
:1026DC00FB681B681A68FB681B6842F400721A607E
:1026EC0001231AE0FB681B8D002B94D1FB681B683F
:1026FC001A68FB681B6842F400721A60FB6820229F
:10270C0083F83D20FB68002283F83E20FB68002202
:10271C0083F83C20002300E0022318461837BD46FE
:10272C0080BD00BF020010000000FFFF80B588B024
:10273C0002AFF8607A603B600B467B81FB68DB6A1A
:10274C007B617B69082B06D07B69012B03D07B69ED
:10275C0013F5803F08D1FB681B681A68FB681B687F
:10276C0042F480721A600BE0FB681B6B122B07D1D2
:10277C00FB681B681A68FB681B6842F480721A605D
:10278C003B6800937B6800224FF00111F86800F061
:10279C004FF80346002B0DD0FB681B681B6803F435
:1027AC008073B3F5807F03D1FB684FF400721A6419
:1027BC00032335E0FB681B69B3F5804F08D17B8997
:1027CC00DBB21A46FB681B6802F0FE021A611BE0C2
:1027DC007B89DB11DBB203F00603DBB263F00F0382
:1027EC00DAB2FB681B681A613B687A680E49F868B4
:1027FC0000F098F80346002B01D0012310E07B89F0
:10280C00DAB2FB681B681A613B687A680749F8689A
:10281C0000F088F80346002B01D0012300E00023D0
:10282C0018461837BD4680BD0800010002000100A3
:10283C0080B584B000AFF860B9603B601346FB71A3
:10284C0048E03B68B3F1FF3F44D0FEF7B5FF0246CA
:10285C00BB69D31A3A689A4202D33B68002B39D130
:10286C00BB681B0CDBB2012B0DD1FB681B685B69D1
:10287C00DA43BB6813409BB2002B0CBF012300232F
:10288C00DBB21A460CE0FB681B689B69DA43BB6839
:10289C0013409BB2002B0CBF01230023DBB21A4662
:1028AC00FB799A4216D1FB6800221A63FB6820223E
:1028BC0083F83D20FB68002283F83E20FB681B6CEC
:1028CC0043F02002FB681A64FB68002283F83C206A
:1028DC00012323E0BB681B0CDBB2012B0DD1FB6881
:1028EC001B685B69DA43BB6813409BB2002B0CBFBF
:1028FC0001230023DBB21A460CE0FB681B689B69C2
:10290C00DA43BB6813409BB2002B0CBF012300239E
:10291C00DBB21A46FB799A4293D000231846103743
:10292C00BD4680BD80B584B000AFF860B9607A60F8
:10293C003B6071E0FB681B685B6903F48063B3F573
:10294C00806F23D1FB681B681A68FB681B6842F414
:10295C0000721A60FB681B686FF480625A61FB6836
:10296C0000221A63FB68202283F83D20FB680022BA
:10297C0083F83E20FB681B6C43F00402FB681A646E
:10298C00FB68002283F83C20012367E07B68B3F1ED
:10299C00FF3F41D0FEF710FF02463B68D31A7A681E
:1029AC009A4202D37B68002B36D1BB681B0CDBB27E
:1029BC00012B0CD1FB681B685B69DA43BB681340C5
:1029CC009BB2002B14BF01230023DBB20BE0FB688E
:1029DC001B689B69DA43BB6813409BB2002B14BF86
:1029EC0001230023DBB2002B16D0FB6800221A63F4
:1029FC00FB68202283F83D20FB68002283F83E20F0
:102A0C00FB681B6C43F02002FB681A64FB68002215
:102A1C0083F83C20012321E0BB681B0CDBB2012BAB
:102A2C000CD1FB681B685B69DA43BB6813409BB233
:102A3C00002B14BF01230023DBB20BE0FB681B68E7
:102A4C009B69DA43BB6813409BB2002B14BF012374
:102A5C000023DBB2002B7FF46DAF00231846103738
:102A6C00BD4680BD80B584B000AFF860B9607A60B7
:102A7C0034E0F86800F086F80346002B01D00123FF
:102A8C0034E0BB68B3F1FF3F28D0FEF795FE024659
:102A9C007B68D31ABA689A4202D3BB68002B1DD14B
:102AAC00FB681B685B6903F08003802B16D0FB6806
:102ABC0000221A63FB68202283F83D20FB68002269
:102ACC0083F83E20FB681B6C43F02002FB681A6401
:102ADC00FB68002283F83C20012307E0FB681B689D
:102AEC005B6903F08003802BC3D100231846103799
:102AFC00BD4680BD80B584B000AFF860B9607A6027
:102B0C0034E0F86800F03EF80346002B01D00123B6
:102B1C0034E0BB68B3F1FF3F28D0FEF74DFE024610
:102B2C007B68D31ABA689A4202D3BB68002B1DD1BA
:102B3C00FB681B685B6903F00403042B16D0FB686D
:102B4C0000221A63FB68202283F83D20FB680022D8
:102B5C0083F83E20FB681B6C43F02002FB681A6470
:102B6C00FB68002283F83C20012307E0FB681B680C
:102B7C005B6903F00403042BC3D100231846103700
:102B8C00BD4680BD80B483B000AF78607B681B68A5
:102B9C005B6903F48063B3F5806F1BD17B681B68A2
:102BAC006FF480625A617B6800221A637B68202272
:102BBC0083F83D207B68002283F83E207B681B6CE9
:102BCC0043F004027B681A647B68002283F83C2083
:102BDC00012300E0002318460C37BD4680BC70472B
:102BEC0080B584B000AF78607B68002B01D10123E5
:102BFC00E8E07B6893F89132DBB2002B06D17B685E
:102C0C00002283F89022786807F076FC7B68032218
:102C1C0083F891227B6800225A717B681B681846E6
:102C2C0003F091FD7B6818687B6804330ECB03F0CE
:102C3C0067FD0346002B05D07B68022283F89122A6
:102C4C000123BFE07B681B680021184603F095FD4B
:102C5C000346002B05D07B68022283F891220123C6
:102C6C00B0E00023FB733EE0FA7B796813469B00CF
:102C7C001344DB000B44113301221A70FA7B796880
:102C8C0013469B001344DB000B441033FA7B1A7081
:102C9C00FA7B796813469B001344DB000B44133317
:102CAC0000221A70FA7B796813469B001344DB00F0
:102CBC000B44203300221A60FA7B796813469B0080
:102CCC001344DB000B44243300221A60FB7B79682D
:102CDC005A1C13469B001344DB000B4400221A6061
:102CEC00FB7B0133FB737B681B79FA7B9A42BBD36A
:102CFC000023FB7344E0FA7B796813469B00134472
:102D0C00DB000B4403F2511300221A70FA7B796832
:102D1C0013469B001344DB000B4403F5A873FA7BAA
:102D2C001A70FA7B796813469B001344DB000B4442
:102D3C0003F2531300221A70FA7B796813469B0036
:102D4C001344DB000B4403F5B07300221A60FA7BCA
:102D5C00796813469B001344DB000B4403F5B273F4
:102D6C0000221A60FA7B796813469B001344DB003F
:102D7C000B4403F5B47300221A60FB7B0133FB7325
:102D8C007B681B79FA7B9A42B5D37B6818687B68A1
:102D9C0004330ECB03F0FDFC0346002B05D07B68FF
:102DAC00022283F8912201230CE07B6800225A73E3
:102DBC007B68012283F891227B681B68184605F01A
:102DCC007CFF002318461037BD4680BD80B582B00D
:102DDC0000AF78607B6893F89032012B01D102230D
:102DEC0016E07B68012283F890227B681B681846EA
:102DFC0003F093FC0121786807F0CBFD7B681B681E
:102E0C00184605F050FF7B68002283F890220023BF
:102E1C0018460837BD4680BD80B588B000AF7860D5
:102E2C007B681B68184605F052FFB861BB6903F458
:102E3C000043002B03D0786800F003FB19E1BB6959
:102E4C0003F48063002B13D07B681B68B3F8443009
:102E5C009AB27B681B6822F4806292B2A3F8442079
:102E6C00786807F0C4FB0021786800F005F900E1F0
:102E7C00BB6903F48043002B0CD07B681B68B3F850
:102E8C0044309AB27B681B6822F4804292B2A3F859
:102E9C004420EEE0BB6903F40053002B0CD07B689C
:102EAC001B68B3F844309AB27B681B6822F400525A
:102EBC0092B2A3F84420DCE0BB6903F48053002BEE
:102ECC0027D07B681B68B3F840309AB27B681B68CC
:102EDC0022F0040292B2A3F840207B681B68B3F87E
:102EEC0040309AB27B681B6822F0080292B2A3F8B9
:102EFC004020786807F0B4FB7B681B68B3F844305B
:102F0C009AB27B681B6822F4805292B2A3F84420D8
:102F1C00AFE0BB6903F40063002B00F08380002357
:102F2C00FB7710E07B681B681A46FB7F9B001A44FA
:102F3C00FB7F128892B25B0020333B4423F8182CA1
:102F4C00FB7F0133FB77FB7F072BEBD97B681B687F
:102F5C00B3F840309AB27B681B6842F0010292B21F
:102F6C00A3F840207B681B68B3F840309AB27B68AA
:102F7C001B6822F0010292B2A3F8402000BF7B68CC
:102F8C001B68B3F844309BB203F48063002BF6D07B
:102F9C007B681B68B3F844309AB27B681B6822F4D8
:102FAC00806292B2A3F844200023FB770FE0FB7FF2
:102FBC007A6812681146FA7F92000A445B0020334B
:102FCC003B4433F8183C1380FB7F0133FB77FB7FCA
:102FDC00072BECD97B681B68B3F840309AB27B683E
:102FEC001B6842F0080292B2A3F840207B681B6871
:102FFC00B3F844309AB27B681B6822F4006292B238
:10300C00A3F844207B681B68B3F840309AB27B6805
:10301C001B6842F0040292B2A3F84020786807F0D3
:10302C0005FB26E0BB6903F40073002B0FD07B6813
:10303C001B68B3F844309AB27B681B6822F40072A8
:10304C0092B2A3F84420786807F0C3FA11E0BB6988
:10305C0003F48073002B0CD07B681B68B3F84430EE
:10306C009AB27B681B6822F4807292B2A3F8442057
:10307C0000BF2037BD4680BD80B582B000AF786000
:10308C000B46FB707B6893F89032012B01D1022325
:10309C0012E07B68012283F890227B68FA785A73DD
:1030AC007B681B68FA781146184605F0E9FD7B68C9
:1030BC00002283F89022002318460837BD4680BDB5
:1030CC0080B584B000AF7860084611461A460346B6
:1030DC00FB700B463B801346BB700023FB7297F9C9
:1030EC000330002B0EDAFB7803F0070213469B002B
:1030FC001344DB0010337A681344FB60FB68012235
:10310C005A700EE0FB7803F0070213469B00134441
:10311C00DB0003F5A8737A681344FB60FB6800229C
:10312C005A70FB7803F00703DAB2FB681A703A881E
:10313C00FB681A61FB68BA78DA70BB78022B02D193
:10314C00FB6800221A717B6893F89032012B01D135
:10315C0002230EE07B68012283F890227B681B68B7
:10316C00F968184603F032FB7B68002283F8902242
:10317C00FB7A18461037BD4680BD80B584B000AFD1
:10318C0078600B46FB7097F90330002B0EDAFB7856
:10319C0003F0070213469B001344DB0010337A68DC
:1031AC001344FB60FB6801225A700EE0FB7803F0BD
:1031BC00070213469B001344DB0003F5A8737A68DF
:1031CC001344FB60FB6800225A70FB7803F0070382
:1031DC00DAB2FB681A707B6893F89032012B01D13C
:1031EC0002230EE07B68012283F890227B681B6827
:1031FC00F968184603F0AAFE7B68002283F8902237
:10320C00002318461037BD4680BD80B586B000AF90
:10321C00F8607A603B600B46FB72FB7A03F00702A6
:10322C0013469B001344DB0003F5A873FA681344A0
:10323C007B617B697A685A617B693A689A617B69C0
:10324C000022DA617B6900225A70FB7A03F00703D3
:10325C00DAB27B691A70FB681B687969184604F04E
:10326C0061F8002318461837BD4680BD80B586B07E
:10327C0000AFF8607A603B600B46FB72FB7A03F0A0
:10328C00070213469B001344DB001033FA68134407
:10329C007B617B697A685A617B693A689A617B6960
:1032AC00012283F824207B693A681A627B69002228
:1032BC00DA617B6901225A70FB7A03F00703DAB2F8
:1032CC007B691A70FB681B687969184604F02AF848
:1032DC00002318461837BD4680BD80B584B000AFBA
:1032EC0078600B46FB70FB7803F007037A68127961
:1032FC00934201D901234CE097F90330002B0EDAED
:10330C00FB7803F0070213469B001344DB001033D9
:10331C007A681344FB60FB6801225A700CE0FA785F
:10332C0013469B001344DB0003F5A8737A6813441F
:10333C00FB60FB6800225A70FB6801229A70FB78D4
:10334C0003F00703DAB2FB681A707B6893F89032CB
:10335C00012B01D102231CE07B68012283F890220F
:10336C007B681B68F968184605F08DFBFB7803F049
:10337C000703002B08D17B681A687B6803F526735A
:10338C001946104605F0B2FC7B68002283F89022A7
:10339C00002318461037BD4680BD80B584B000AF01
:1033AC0078600B46FB70FB7803F00F037A68127998
:1033BC00934201D9012340E097F90330002B0EDA38
:1033CC00FB7803F0070213469B001344DB00103319
:1033DC007A681344FB60FB6801225A700EE0FB789C
:1033EC0003F0070213469B001344DB0003F5A8739C
:1033FC007A681344FB60FB6800225A70FB68002259
:10340C009A70FB7803F00703DAB2FB681A707B68DA
:10341C0093F89032012B01D102230EE07B6801223C
:10342C0083F890227B681B68F968184605F07BFBD3
:10343C007B68002283F89022002318461037BD4683
:10344C0080BD80B596B000AF7860BBE37B681B682D
:10345C00B3F84430A7F84E30B7F84E30DBB203F077
:10346C000F0387F84D3097F84D30002B40F07581E5
:10347C00B7F84E3003F01003002B4ED17B681B685D
:10348C001B889BB223F4E14323F07003FB817B6820
:10349C001A68FB896FEA43436FEA53439BB213806C
:1034AC007B6810337B657B681B68B3F850309BB22C
:1034BC001A467B6D1B78DB00134402335B007A6881
:1034CC001268134403F580631B88C3F309027B6DF8
:1034DC00DA617B6D5A697B6DDB691A447B6D5A61CD
:1034EC000021786807F05BF87B685B7BDBB2002B14
:1034FC0000F068837B6D9B69002B40F063837B68D5
:10350C005B7BDBB263F07F03DAB27B681B68A3F8EA
:10351C004C207B6800225A7354E37B6803F5A87334
:10352C007B657B681B681B88A7F84A30B7F84A3064
:10353C0003F40063002B34D07B681B68B3F8503065
:10354C009BB21A467B6D1B78DB00134406335B0081
:10355C007A681268134403F580631B88C3F309026D
:10356C007B6DDA617B6818687B6803F526717B6D6F
:10357C00DA887B6DDB699BB205F009FC7B681B6804
:10358C001B889AB240F68F7313403B827B681B6892
:10359C003A8A42F0800292B21A80786806F0D2FF22
:1035AC0010E3B7F94A30002B80F20C837B681B6860
:1035BC001B889AB240F68F731340FB837B681B68A1
:1035CC00FA8B42F0800292B21A807B681B68B3F8C7
:1035DC0050309BB21A467B6D1B78DB0013440633CC
:1035EC005B007A681268134403F580631B88C3F38D
:1035FC0009027B6DDA617B6DDB69002B19D07B6D69
:10360C005B69002B15D07B6818687B6D59697B6DE5
:10361C00DA887B6DDB699BB205F0B9FB7B6D5A696F
:10362C007B6DDB691A447B6D5A610021786806F06A
:10363C009BFF7B681B681B88A7F84A30B7F84A3099
:10364C0003F40063002B40F0BD82B7F84A3003F45A
:10365C004053B3F5405F00F0B5827B681B68BB61DB
:10366C007B681B68B3F850309BB21A46BB69134495
:10367C00BB61BB6903F20C437B617B691B889BB20A
:10368C00C3F309039AB27B691A807B6D1B693E2BCD
:10369C001DD97B6D1B695B097B647B6D1B6903F01A
:1036AC001F03002B02D17B6C013B7B647B691B8865
:1036BC009AB27B6C9BB29B029BB213439BB26FEA98
:1036CC0043436FEA53439AB27B691A8026E07B6DC1
:1036DC001B69002B0AD17B691B889BB26FEA4343A1
:1036EC006FEA53439AB27B691A8017E07B6D1B69B2
:1036FC005B087B647B6D1B6903F00103002B02D01C
:10370C007B6C01337B647B691B889AB27B6C9BB2AC
:10371C009B029BB213439AB27B691A807B681B682D
:10372C001B889BB223F4804323F070037B827B8A3B
:10373C0083F480537B827B8A83F400537B827B6887
:10374C001A687B8A43F07F4343F47F0343F40043BE
:10375C0043F080039BB2138034E27B681B681A46EB
:10376C0097F84D309B0013441B88A7F84A30B7F9E3
:10377C004A30002B80F2FC807B681B681A4697F855
:10378C004D309B0013441B889AB240F68F73134044
:10379C00A7F848307B681B681A4697F84D309B0099
:1037AC001344B7F8482042F0800292B21A8097F87E
:1037BC004D2013469B001344DB0003F5A8737A6875
:1037CC0013447B657B6D1B7B002B25D17B681B68B1
:1037DC00B3F850309BB21A467B6D1B78DB00134458
:1037EC0006335B007A681268134403F580631B8808
:1037FC00C3F30903A7F85030B7F85030002B00F092
:10380C0092807B6818687B6D59697B6DDA88B7F894
:10381C00503005F0BCFA86E07B6DDB78022B0AD1C8
:10382C00B7F84A301A46796D786800F0D9F9034632
:10383C00A7F8503077E07B681B681A467B6D1B78C5
:10384C009B0013441B889BB223F4E04323F07003CA
:10385C00A7F852307B681B681A467B6D1B789B005F
:10386C001A44B7F8523043F07F4343F47F0343F4D8
:10387C00004343F0C0039BB213807B681B681A465D
:10388C007B6D1B789B0013441B889BB203F4804315
:10389C00002B24D07B681B68B3F850309BB21A46BF
:1038AC007B6D1B78DB00134402335B007A68126873
:1038BC00134403F580631B88C3F30903A7F8503046
:1038CC00B7F85030002B2ED07B6818687B6D596987
:1038DC007B6D1A89B7F8503005F059FA23E07B68F4
:1038EC001B68B3F850309BB21A467B6D1B78DB001B
:1038FC00134406335B007A681268134403F5806343
:10390C001B88C3F30903A7F85030B7F85030002BCD
:10391C0009D07B6818687B6D59697B6D5A89B7F83B
:10392C00503005F034FA7B6DDA69B7F850301A4430
:10393C007B6DDA617B6D5A69B7F850301A447B6D38
:10394C005A617B6D9B69002B05D0B7F850207B6DBD
:10395C001B699A4206D27B6D1B781946786806F073
:10396C0003FE05E07B681B68796D184603F0DAFCF2
:10397C00B7F84A3003F08003002B00F0238197F84E
:10398C004D2013469B001344DB0010337A6813441C
:10399C007B657B681B681A4697F84D309B00134477
:1039AC001B889BB223F4E14323F07003A7F8423049
:1039BC007B681B681A4697F84D309B001A44B7F881
:1039CC0042306FEA43436FEA53439BB213807B6DE3
:1039DC00DB78012B40F0A2807B6D00229A617B6D1D
:1039EC001B7B002B00F09380B7F84A3003F04003A8
:1039FC00002B46D07B6D5B78002B26D17B681B6837
:103A0C007B627B681B68B3F850309BB21A467B6AAA
:103A1C0013447B627B6D1B781A017B6A134403F29F
:103A2C0004433B623B6A1B889BB2C3F309039AB203
:103A3C003B6A1A803B6A1B889BB26FEA43436FEA6E
:103A4C0053439AB23B6A1A8061E07B6D5B78012B21
:103A5C005DD17B681B68FB627B681B68B3F85030D8
:103A6C009BB21A46FB6A1344FB627B6D1B781A01EE
:103A7C00FB6A134403F20443BB62BB6A00221A8044
:103A8C0045E07B681B68FB637B6D5B78002B26D164
:103A9C007B681B687B637B681B68B3F850309BB2F8
:103AAC001A467B6B13447B637B6D1B781A017B6B13
:103ABC00134403F20C433B633B6B1B889BB2C3F375
:103ACC0009039AB23B6B1A803B6B1B889BB26FEA63
:103ADC0043436FEA53439AB23B6B1A8017E07B6DFA
:103AEC005B78012B13D17B681B68B3F850309BB209
:103AFC001A46FB6B1344FB637B6D1B781A01FB6B43
:103B0C00134403F20C43BB63BB6B00221A807B6D26
:103B1C001B781946786806F042FD53E0B7F84A3036
:103B2C0003F48073002B46D17B681B68B3F85030CC
:103B3C009BB21A467B6D1B78DB00134402335B008F
:103B4C007A681268134403F580631B88C3F3090376
:103B5C00A7F840307B6D9A69B7F840309A4207D984
:103B6C007B6D9A69B7F84030D21A7B6D9A6102E08E
:103B7C007B6D00229A617B6D9B69002B06D17B6D5E
:103B8C001B781946786806F00AFD1BE07B6D5A69B4
:103B9C00B7F840301A447B6D5A617B6DDA69B7F81F
:103BAC0040301A447B6DDA617B681B68796D18466E
:103BBC0003F0B8FB06E0B7F84A301A46796D78681E
:103BCC0000F01BF97B681B68B3F844309BB21BB246
:103BDC00002BFFF63BAC002318465837BD4680BD82
:103BEC0080B588B000AFF860B9601346FB80FB88E5
:103BFC0003F48043002B7ED0FB681B68B3F8503075
:103C0C009BB21A46BB681B78DB00134402335B0083
:103C1C00FA681268134403F580631B88C3F3090325
:103C2C007B83BB689A697B8B9A4206D3BB689A6983
:103C3C007B8BD21ABB689A6102E0BB6800229A6146
:103C4C00BB689B69002B23D1FB681B681A46BB68B9
:103C5C001B789B0013441B889BB223F4804323F0F6
:103C6C0070033B833B8B83F400533B83FB681B68E3
:103C7C001A46BB681B789B001A443B8B43F07F436E
:103C8C0043F47F0343F4004343F080039BB213805F
:103C9C00FB8803F04003002B1FD0FB681B681A46FF
:103CAC00BB681B789B0013441B889BB223F4E04336
:103CBC0023F07003FB82FB681B681A46BB681B78F9
:103CCC009B001A44FB8A43F07F4343F47F0343F485
:103CDC00004343F0C0039BB213807B8B002B00F09E
:103CEC008780FB681868BB685969BB681A897B8B2D
:103CFC0005F04DF87CE0FB681B68B3F850309BB2C4
:103D0C001A46BB681B78DB00134406335B00FA6869
:103D1C001268134403F580631B88C3F309037B8388
:103D2C00BB689A697B8B9A4206D3BB689A697B8B7A
:103D3C00D21ABB689A6102E0BB6800229A61BB6828
:103D4C009B69002B23D1FB681B681A46BB681B7848
:103D5C009B0013441B889BB223F4804323F0700315
:103D6C00FB83FB8B83F40053FB83FB681B681A46B5
:103D7C00BB681B789B001A44FB8B43F07F4343F4D6
:103D8C007F0343F4004343F080039BB21380FB8812
:103D9C0003F04003002B1FD1FB681B681A46BB685D
:103DAC001B789B0013441B889BB223F4E04323F045
:103DBC007003BB83FB681B681A46BB681B789B00AF
:103DCC001A44BB8B43F07F4343F47F0343F400431B
:103DDC0043F0C0039BB213807B8B002B08D0FB6895
:103DEC001868BB685969BB685A897B8B04F0CFFF94
:103DFC007B8B18462037BD4680BD80B5A4B000AF84
:103E0C00F860B9601346FB80FB8803F04003002B7D
:103E1C0000F0DD81FB681B68B3F850309BB21A468A
:103E2C00BB681B78DB00134402335B00FA68126832
:103E3C00134403F580631B88C3F30903A7F886308A
:103E4C00BB689A69B7F886309A4207D9BB689A69F9
:103E5C00B7F88630D21ABB689A6102E0BB680022C0
:103E6C009A61BB689B69002B40F0B980BB685B789A
:103E7C00002B26D1FB681B68FB62FB681B68B3F840
:103E8C0050309BB21A46FB6A1344FB62BB681B782A
:103E9C001A01FB6A134403F20443BB62BB6A1B881E
:103EAC009BB2C3F309039AB2BB6A1A80BB6A1B8824
:103EBC009BB26FEA43436FEA53439AB2BB6A1A80D0
:103ECC001AE0BB685B78012B16D1FB681B687B631F
:103EDC00FB681B68B3F850309BB21A467B6B1344DB
:103EEC007B63BB681B781A017B6B134403F204439E
:103EFC003B633B6B00221A80FB681B687B62BB68D0
:103F0C005B78002B26D1FB681B68FB61FB681B6888
:103F1C00B3F850309BB21A46FB691344FB61BB6883
:103F2C001B781A01FB69134403F20C43BB61BB6998
:103F3C001B889BB2C3F309039AB2BB691A80BB6995
:103F4C001B889BB26FEA43436FEA53439AB2BB6937
:103F5C001A8017E0BB685B78012B13D1FB681B68D8
:103F6C00B3F850309BB21A467B6A13447B62BB6831
:103F7C001B781A017B6A134403F20C433B623B6AC5
:103F8C0000221A80BB681B781946F86806F007FBFC
:103F9C00FB8803F48043002B00F0FC82FB681B6859
:103FAC001A46BB681B789B0013441B889BB223F4F6
:103FBC00E04323F07003FB82FB681B681A46BB6866
:103FCC001B789B001A44FB8A43F07F4343F47F0326
:103FDC0043F4404343F080039BB21380DAE2FB8846
:103FEC0003F48043002B21D0FB681B681A46BB6886
:103FFC001B789B0013441B889BB223F4E04323F0F3
:10400C007003A7F88A30FB681B681A46BB681B78DC
:10401C009B001A44B7F88A3043F07F4343F47F0384
:10402C0043F4404343F080039BB21380BB6893F886
:10403C002430012B40F0AE82BB685A69B7F8863049
:10404C001A44BB685A61BB68DA69B7F886301A44FF
:10405C00BB68DA61BB681A6ABB681B699A420BD3EE
:10406C00BB681B69C7F88C30BB681A6AD7F88C30F0
:10407C00D21ABB681A6217E0BB681B6A002B08D106
:10408C00B7F88630C7F88C30BB68002283F8242040
:10409C000AE0BB68002283F82420BB681B6AC7F8BF
:1040AC008C30BB6800221A62BB685B78002B65D130
:1040BC00FB681B68FB63FB681B68B3F850309BB252
:1040CC001A46FB6B1344FB63BB681B781A01FB6B32
:1040DC00134403F20443BB63BB6B1B889BB2C3F357
:1040EC0009039AB2BB6B1A80D7F88C303E2B1DD9C2
:1040FC00D7F88C305B09BB64D7F88C3003F01F0306
:10410C00002B02D1BB6C013BBB64BB6B1B889AB20E
:10411C00BB6C9BB29B029BB213439BB26FEA4343B3
:10412C006FEA53439AB2BB6B1A8044E0D7F88C30D9
:10413C00002B0AD1BB6B1B889BB26FEA43436FEA1F
:10414C0053439AB2BB6B1A8035E0D7F88C305B08BE
:10415C00BB64D7F88C3003F00103002B02D0BB6C8E
:10416C000133BB64BB6B1B889AB2BB6C9BB29B02CA
:10417C009BB213439AB2BB6B1A801CE0BB685B7892
:10418C00012B18D1FB681B687B64FB681B68B3F8B8
:10419C0050309BB21A467B6C13447B64BB681B7813
:1041AC001A017B6C134403F204433B64D7F88C3044
:1041BC009AB23B6C1A80FB681868BB685969BB687B
:1041CC001A89D7F88C309BB204F09BFDE2E1FB68B6
:1041DC001B68B3F850309BB21A46BB681B78DB00E7
:1041EC00134406335B00FA681268134403F58063CA
:1041FC001B88C3F30903A7F88630BB689A69B7F824
:10420C0086309A4207D3BB689A69B7F88630D21ABF
:10421C00BB689A6102E0BB6800229A61BB689B692B
:10422C00002B40F0C080BB685B78002B26D1FB686C
:10423C001B68FB67FB681B68B3F850309BB21A46CF
:10424C00FB6F1344FB67BB681B781A01FB6F1344AD
:10425C0003F20443BB67BB6F1B889BB2C3F3090318
:10426C009AB2BB6F1A80BB6F1B889BB26FEA434339
:10427C006FEA53439AB2BB6F1A801AE0BB685B7843
:10428C00012B16D1FB681B687B66FB681B68B3F8B7
:10429C0050309BB21A467B6E13447B66BB681B780E
:1042AC001A017B6E134403F204433B663B6E0022FF
:1042BC001A80FB681B687B67BB685B78002B2BD173
:1042CC00FB681B68FB66FB681B68B3F850309BB23D
:1042DC001A46FB6E1344FB66BB681B781A01FB6E17
:1042EC00134403F20C43C7F88030D7F880301B8896
:1042FC009BB2C3F309039AB2D7F880301A80D7F86F
:10430C0080301B889BB26FEA43436FEA53439AB2E7
:10431C00D7F880301A8017E0BB685B78012B13D17B
:10432C00FB681B68B3F850309BB21A467B6F134482
:10433C007B67BB681B781A017B6F134403F20C4339
:10434C003B673B6F00221A80BB681B781946F868E4
:10435C0006F025F9FB8803F48043002B40F01A810A
:10436C00FB681B681A46BB681B789B0013441B88B0
:10437C009BB223F4E04323F07003A7F88830FB686A
:10438C001B681A46BB681B789B001A44B7F8883028
:10439C0043F07F4343F47F0343F4404343F08003F3
:1043AC009BB21380F6E0FB8803F48043002B21D1F1
:1043BC00FB681B681A46BB681B789B0013441B8860
:1043CC009BB223F4E04323F07003A7F84E30FB6854
:1043DC001B681A46BB681B789B001A44B7F84E3012
:1043EC0043F07F4343F47F0343F4404343F08003A3
:1043FC009BB21380BB6893F82430012B40F0CA8029
:10440C00BB685A69B7F886301A44BB685A61BB68F6
:10441C00DA69B7F886301A44BB68DA61BB681A6A85
:10442C00BB681B699A420BD3BB681B69C7F88C30FD
:10443C00BB681A6AD7F88C30D21ABB681A6217E0BC
:10444C00BB681B6A002B08D1B7F88630C7F88C30D4
:10445C00BB68002283F824200AE0BB681B6AC7F8FB
:10446C008C30BB6800221A62BB68002283F82420BF
:10447C00FB681B687B65BB685B78002B65D1FB68B0
:10448C001B68FB65FB681B68B3F850309BB21A467F
:10449C00FB6D1344FB65BB681B781A01FB6D134461
:1044AC0003F20C43BB65BB6D1B889BB2C3F30903C2
:1044BC009AB2BB6D1A80D7F88C303E2B1DD9D7F829
:1044CC008C305B09BB66D7F88C3003F01F03002BD4
:1044DC0002D1BB6E013BBB66BB6D1B889AB2BB6E37
:1044EC009BB29B029BB213439BB26FEA43436FEAAE
:1044FC0053439AB2BB6D1A8041E0D7F88C30002B35
:10450C000AD1BB6D1B889BB26FEA43436FEA5343DE
:10451C009AB2BB6D1A8032E0D7F88C305B08BB6660
:10452C00D7F88C3003F00103002B02D0BB6E0133A3
:10453C00BB66BB6D1B889AB2BB6E9BB29B029BB2D7
:10454C0013439AB2BB6D1A8019E0BB685B78012BE0
:10455C0015D1FB681B68B3F850309BB21A467B6DC3
:10456C0013447B65BB681B781A017B6D134403F203
:10457C000C433B65D7F88C309AB23B6D1A80FB68C4
:10458C001868BB685969BB685A89D7F88C309BB2DC
:10459C0004F0B7FBFB681B681A46BB681B789B00D2
:1045AC0013441B889BB223F4E04323F04003BB82EB
:1045BC00BB8A83F01003BB82BB8A83F02003BB82CF
:1045CC00FB681B681A46BB681B789B001A44BB8AA5
:1045DC0043F07F4343F47F0343F4004343F08003F1
:1045EC009BB21380002318469037BD4680BD80B423
:1045FC0087B000AFF8607B600B467B8113463B8134
:10460C007B8903F080039BB2002B0BD07B8903F0DA
:10461C00070213469B001344DB001033FA68134463
:10462C007B6109E07A8913469B001344DB0003F598
:10463C00A873FA6813447B613B89002B07D17B6913
:10464C0000221A737B689AB27B69DA800BE07B6973
:10465C0001221A737B689AB27B691A817B681B0CE6
:10466C009AB27B695A81002318461C37BD4680BC20
:10467C007047000080B586B000AF78607B68002B77
:10468C0001D1012372E27B681B6803F00103002B4C
:10469C0000F08780924B5B6803F00C03042B0CD06A
:1046AC008F4B5B6803F00C03082B12D18C4B5B68AF
:1046BC0003F48033B3F5803F0BD1894B1B6803F4B3
:1046CC000033002B6CD07B685B68002B68D1012316
:1046DC004CE27B685B68B3F5803F06D1804B1B686E
:1046EC007F4A43F4803313602EE07B685B68002BB9
:1046FC000CD17B4B1B687A4A23F480331360784BC4
:10470C001B68774A23F4802313601DE07B685B6889
:10471C00B3F5A02F0CD1724B1B68714A43F4802364
:10472C0013606F4B1B686E4A43F4803313600BE0CD
:10473C006B4B1B686A4A23F480331360684B1B680D
:10474C00674A23F4802313607B685B68002B13D0CB
:10475C00FDF732F8386108E0FDF72EF802463B69A8
:10476C00D31A642B01D9032300E25D4B1B6803F4BD
:10477C000033002BF0D014E0FDF71EF8386108E090
:10478C00FDF71AF802463B69D31A642B01D90323AF
:10479C00ECE1534B1B6803F40033002BF0D100E029
:1047AC0000BF7B681B6803F00203002B63D04C4BEB
:1047BC005B6803F00C03002B0BD0494B5B6803F0D8
:1047CC000C03082B1CD1464B5B6803F48033002B85
:1047DC0016D1434B1B6803F00203002B05D07B68FA
:1047EC001B69012B01D00123C0E13D4B1B6823F059
:1047FC00F8027B685B69DB00394913430B603AE0D4
:10480C007B681B69002B20D0364B01221A60FCF709
:10481C00D3FF386108E0FCF7CFFF02463B69D31A9F
:10482C00022B01D90323A1E12D4B1B6803F00203DA
:10483C00002BF0D02A4B1B6823F0F8027B685B69D5
:10484C00DB00274913430B6015E0264B00221A604E
:10485C00FCF7B2FF386108E0FCF7AEFF02463B699B
:10486C00D31A022B01D9032380E11D4B1B6803F0E3
:10487C000203002BF0D17B681B6803F00803002BAC
:10488C003AD07B689B69002B19D0174B01221A6018
:10489C00FCF792FF386108E0FCF78EFF02463B699B
:1048AC00D31A022B01D9032360E10D4B5B6A03F091
:1048BC000203002BF0D0012000F0BAFA1CE00A4BE6
:1048CC0000221A60FCF778FF38610FE0FCF774FFE8
:1048DC0002463B69D31A022B08D9032346E100BFD9
:1048EC00001002400000424280044242924B5B6A3C
:1048FC0003F00203002BE9D17B681B6803F004036F
:10490C00002B00F0A6800023FB758B4BDB6903F0BA
:10491C008053002B0DD1884BDB69874A43F08053C1
:10492C00D361854BDB6903F08053BB60BB6801230B
:10493C00FB75824B1B6803F48073002B18D17F4BE3
:10494C001B687E4A43F480731360FCF735FF3861B3
:10495C0008E0FCF731FF02463B69D31A642B01D9FE
:10496C00032303E1754B1B6803F48073002BF0D019
:10497C007B68DB68012B06D16F4B1B6A6E4A43F0D8
:10498C00010313622DE07B68DB68002B0CD16A4BB2
:10499C001B6A694A23F001031362674B1B6A664A60
:1049AC0023F0040313621CE07B68DB68052B0CD13D
:1049BC00614B1B6A604A43F0040313625E4B1B6A33
:1049CC005D4A43F0010313620BE05B4B1B6A5A4ACE
:1049DC0023F001031362584B1B6A574A23F004035C
:1049EC0013627B68DB68002B15D0FCF7E5FE3861A1
:1049FC000AE0FCF7E1FE02463B69D31A41F2883229
:104A0C00934201D90323B1E04B4B1B6A03F0020321
:104A1C00002BEED014E0FCF7CFFE38610AE0FCF777
:104A2C00CBFE02463B69D31A41F28832934201D93C
:104A3C0003239BE0404B1B6A03F00203002BEED1D7
:104A4C00FB7D012B05D13C4BDB693B4A23F08053AA
:104A5C00D3617B68DB69002B00F08780364B5B6889
:104A6C0003F00C03082B61D07B68DB69022B46D169
:104A7C00334B00221A60FCF79FFE386108E0FCF70C
:104A8C009BFE02463B69D31A022B01D903236DE02E
:104A9C00294B1B6803F00073002BF0D17B681B6A59
:104AAC00B3F5803F08D1244B5B6823F400327B685C
:104ABC009B68214913434B601F4B5B6823F47412B2
:104ACC007B68196A7B685B6A0B431B4913434B6019
:104ADC001B4B01221A60FCF76FFE386108E0FCF7F3
:104AEC006BFE02463B69D31A022B01D903233DE02E
:104AFC00114B1B6803F00073002BF0D035E0104B0A
:104B0C0000221A60FCF758FE386108E0FCF754FEEE
:104B1C0002463B69D31A022B01D9032326E0064B2C
:104B2C001B6803F00073002BF0D11EE07B68DB697F
:104B3C00012B07D1012319E0001002400070004046
:104B4C00600042420B4B5B68FB60FB6803F48032F5
:104B5C007B681B6A9A4206D1FB6803F470127B686F
:104B6C005B6A9A4201D0012300E0002318461837F3
:104B7C00BD4680BD0010024080B584B000AF7860A7
:104B8C0039607B68002B01D10123D0E06A4B1B6894
:104B9C0003F007033A689A4210D9674B1B6823F05D
:104BAC00070265493B6813430B60634B1B6803F0BA
:104BBC0007033A689A4201D00123B8E07B681B686E
:104BCC0003F00203002B20D07B681B6803F0040366
:104BDC00002B05D0594B5B68584A43F4E063536093
:104BEC007B681B6803F00803002B05D0534B5B68F4
:104BFC00524A43F460535360504B5B6823F0F0020D
:104C0C007B689B684D4913434B607B681B6803F0C2
:104C1C000103002B40D07B685B68012B07D1474B0D
:104C2C001B6803F40033002B15D101237FE07B6854
:104C3C005B68022B07D1414B1B6803F00073002B00
:104C4C0009D1012373E03D4B1B6803F00203002BD9
:104C5C0001D101236BE0394B5B6823F003027B68C5
:104C6C005B68364913434B60FCF7A6FDF8600AE01D
:104C7C00FCF7A2FD0246FB68D31A41F2883293423C
:104C8C0001D9032353E02D4B5B6803F00C027B68C6
:104C9C005B689B009A42EBD1274B1B6803F0070320
:104CAC003A689A4210D2244B1B6823F0070222491F
:104CBC003B6813430B60204B1B6803F007033A68F7
:104CCC009A4201D0012332E07B681B6803F0040395
:104CDC00002B08D0194B5B6823F4E0627B68DB681F
:104CEC00164913434B607B681B6803F00803002BC9
:104CFC0009D0124B5B6823F460527B681B69DB00A4
:104D0C000E4913434B6000F021F802460B4B5B68D5
:104D1C001B0903F00F030A49CB5C22FA03F3094A7F
:104D2C001360094B1B681846FCF704FD002318465A
:104D3C001037BD4680BD00BF00200240001002406D
:104D4C00E4B20008140000201800002080B487B0E2
:104D5C0000AF0023FB600023BB6000237B610023BA
:104D6C007B6000233B611E4B5B68FB60FB6803F0C0
:104D7C000C03042B02D0082B03D027E0194B3B610A
:104D8C0027E0FB689B0C03F00F03174AD35C7B6096
:104D9C00FB6803F48033002B10D0114B5B685B0C69
:104DAC0003F00103114AD35CBB607B680D4A03FB23
:104DBC0002F2BB68B2FBF3F37B6104E07B680C4A44
:104DCC0002FB03F37B617B693B6102E0054B3B61BA
:104DDC0000BF3B6918461C37BD4680BC704700BFFE
:104DEC000010024000127A00FCB200080CB300085C
:104DFC0000093D0080B400AF024B1B681846BD464D
:104E0C0080BC70471400002080B500AFFFF7F2FFA4
:104E1C000246054B5B681B0A03F007030349CB5C96
:104E2C0022FA03F3184680BD00100240F4B20008C9
:104E3C0080B485B000AF78600A4B1B680A4AA2FBAD
:104E4C0003235B0A7A6802FB03F3FB6000BFFB6879
:104E5C005A1EFA60002BF9D100BF00BF1437BD46B3
:104E6C0080BC704714000020D34D621080B586B012
:104E7C0000AF786000233B610023FB607B681B68FC
:104E8C0003F00103002B7DD00023FB754F4BDB6936
:104E9C0003F08053002B0DD14C4BDB694B4A43F094
:104EAC008053D361494BDB6903F08053BB60BB6813
:104EBC000123FB75464B1B6803F48073002B18D140
:104ECC00434B1B68424A43F480731360FCF774FC39
:104EDC00386108E0FCF770FC02463B69D31A642B7E
:104EEC0001D903236DE03A4B1B6803F48073002B4C
:104EFC00F0D0364B1B6A03F44073FB60FB68002B4D
:104F0C002ED07B685B6803F44073FA689A4227D012
:104F1C002E4B1B6A23F44073FB602E4B01221A604C
:104F2C002C4B00221A60294AFB681362FB6803F0C1
:104F3C000103002B14D0FCF73FFC38610AE0FCF7AE
:104F4C003BFC02463B69D31A41F28832934201D9A9
:104F5C00032336E01D4B1B6A03F00203002BEED03B
:104F6C001A4B1B6A23F440727B685B681749134326
:104F7C000B62FB7D012B05D1144BDB69134A23F02B
:104F8C008053D3617B681B6803F00203002B08D0AD
:104F9C000E4B5B6823F440427B689B680B491343C0
:104FAC004B607B681B6803F01003002B08D0074B89
:104FBC005B6823F480027B68DB68044913434B6015
:104FCC00002318461837BD4680BD00BF00100240B4
:104FDC00007000404004424280B582B000AF78605F
:104FEC007B68002B01D1012341E07B6893F83D30B5
:104FFC00DBB2002B06D17B68002283F83C2078685A
:10500C00FCF73CF97B68022283F83D207B681A6828
:10501C007B6804331946104601F052F87B68012274
:10502C0083F846207B68012283F83E207B680122AE
:10503C0083F83F207B68012283F840207B680122A3
:10504C0083F841207B68012283F842207B6801228F
:10505C0083F843207B68012283F844207B6801227B
:10506C0083F845207B68012283F83D2000231846F5
:10507C000837BD4680BD80B582B000AF78607B68D4
:10508C00002B01D1012341E07B6893F83D30DBB26A
:10509C00002B06D17B68002283F83C207868FCF753
:1050AC00C9F87B68022283F83D207B681A687B680C
:1050BC0004331946104601F003F87B68012283F88B
:1050CC0046207B68012283F83E207B68012283F80E
:1050DC003F207B68012283F840207B68012283F803
:1050EC0041207B68012283F842207B68012283F8EF
:1050FC0043207B68012283F844207B68012283F8DB
:10510C0045207B68012283F83D2000231846083790
:10511C00BD4680BD80B582B000AF78607B68002B47
:10512C0001D1012341E07B6893F83D30DBB2002BC9
:10513C0006D17B68002283F83C20786800F039F8AF
:10514C007B68022283F83D207B681A687B680433F5
:10515C001946104600F0B4FF7B68012283F8462004
:10516C007B68012283F83E207B68012283F83F2074
:10517C007B68012283F840207B68012283F8412060
:10518C007B68012283F842207B68012283F843204C
:10519C007B68012283F844207B68012283F8452038
:1051AC007B68012283F83D20002318460837BD4652
:1051BC0080BD80B483B000AF786000BF0C37BD46B3
:1051CC0080BC704780B586B000AFF860B9607A607B
:1051DC007B800023FB75BB68002B09D1FB6893F81F
:1051EC003E30DBB2022B0CBF01230023DBB222E0EA
:1051FC00BB68042B09D1FB6893F83F30DBB2022B60
:10520C000CBF01230023DBB215E0BB68082B09D1CE
:10521C00FB6893F84030DBB2022B0CBF0123002358
:10522C00DBB208E0FB6893F84130DBB2022B0CBF19
:10523C0001230023DBB2002B01D0022353E1BB6816
:10524C00002B09D1FB6893F83E30DBB2012B0CBF6D
:10525C0001230023DBB222E0BB68042B09D1FB68DD
:10526C0093F83F30DBB2012B0CBF01230023DBB2E0
:10527C0015E0BB68082B09D1FB6893F84030DBB212
:10528C00012B0CBF01230023DBB208E0FB6893F871
:10529C004130DBB2012B0CBF01230023DBB2002B0E
:1052AC0024D07B68002B02D07B88002B01D10123FA
:1052BC0019E1BB68002B04D1FB68022283F83E2065
:1052CC0016E0BB68042B04D1FB68022283F83F2054
:1052DC000EE0BB68082B04D1FB68022283F8402047
:1052EC0006E0FB68022283F8412001E00123FAE08A
:1052FC00BB680C2B00F2AE8001A252F823F000BF69
:10530C0041530008615400086154000861540008BE
:10531C008953000861540008615400086154000866
:10532C00D15300086154000861540008615400080E
:10533C0019540008FB685B6A6D4A9A62FB685B6AE9
:10534C006C4ADA62FB685B6A6B4A1A63FB68586AE0
:10535C007968FB681B6834331A467B88FCF7C2FB00
:10536C000346002B01D00123BDE0FB681B68DA6803
:10537C00FB681B6842F40072DA606EE0FB689B6AA3
:10538C005B4A9A62FB689B6A5A4ADA62FB689B6AC0
:10539C00594A1A63FB68986A7968FB681B6838334A
:1053AC001A467B88FCF79EFB0346002B01D0012399
:1053BC0099E0FB681B68DA68FB681B6842F4806242
:1053CC00DA604AE0FB68DB6A494A9A62FB68DB6A8E
:1053DC00484ADA62FB68DB6A474A1A63FB68D86A98
:1053EC007968FB681B683C331A467B88FCF77AFBB0
:1053FC000346002B01D0012375E0FB681B68DA68BB
:10540C00FB681B6842F40062DA6026E0FB681B6BE9
:10541C00374A9A62FB681B6B364ADA62FB681B6B75
:10542C00354A1A63FB68186B7968FB681B68403354
:10543C001A467B88FCF756FB0346002B01D0012350
:10544C0051E0FB681B68DA68FB681B6842F4805209
:10545C00DA6002E00123FB7500BFFB7D002B41D11C
:10546C00FB681B680122B968184601F0B5F8FB68A7
:10547C001B68224A934207D1FB681B685A6CFB6875
:10548C001B6842F400425A64FB681B681B4A934237
:10549C000ED0FB681B68B3F1804F09D0FB681B680A
:1054AC00174A934204D0FB681B68164A934211D1E9
:1054BC00FB681B689B6803F007033B613B69062B89
:1054CC0010D0FB681B681A68FB681B6842F001026D
:1054DC001A6007E0FB681B681A68FB681B6842F0DF
:1054EC0001021A60FB7D18461837BD4680BD00BF0F
:1054FC00BB5F000863600008295F0008002C0140B6
:10550C00000400400008004080B584B000AF786013
:10551C0039600023FB733B680C2B55D801A252F861
:10552C0023F000BF65550008D5550008D555000877
:10553C00D555000881550008D5550008D5550008EB
:10554C00D55500089D550008D5550008D5550008BF
:10555C00D5550008B95500087B681B68DA687B686C
:10556C001B6822F40072DA607B685B6A1846FCF7F1
:10557C0019FB2CE07B681B68DA687B681B6822F4DB
:10558C008062DA607B689B6A1846FCF70BFB1EE0B6
:10559C007B681B68DA687B681B6822F40062DA603F
:1055AC007B68DB6A1846FCF7FDFA10E07B681B6829
:1055BC00DA687B681B6822F48052DA607B681B6BAC
:1055CC001846FCF7EFFA02E00123FB7300BFFB7BEC
:1055DC00002B57D17B681B6800223968184600F0F5
:1055EC00FBFF7B681B682A4A934217D17B681B68B8
:1055FC001A6A41F211131340002B0FD17B681B6800
:10560C001A6A40F244431340002B07D17B681B6895
:10561C005A6C7B681B6822F400425A647B681B68D6
:10562C001A6A41F211131340002B0FD17B681B68CF
:10563C001A6A40F244431340002B07D17B681B6865
:10564C001A687B681B6822F001021A603B68002B09
:10565C0004D17B68012283F83E2013E03B68042BC5
:10566C0004D17B68012283F83F200BE03B68082BB8
:10567C0004D17B68012283F8402003E07B6801227F
:10568C0083F84120FB7B18461037BD4680BD00BF18
:10569C00002C014080B586B000AF786039607B6823
:1056AC00002B01D1012393E07B6893F83D30DBB2F2
:1056BC00002B06D17B68002283F83C207868FBF72E
:1056CC0079FD7B68022283F83D207B681B689B6810
:1056DC007A68126823F4804323F0070393607B6895
:1056EC001A687B6804331946104600F0E9FC7B68A5
:1056FC001B689B687B617B681B689B693B617B6853
:10570C001B681B6AFB603B681B687A6913437B61EF
:10571C003B6923F4407323F003033B613B689A68B5
:10572C003B689B691B0213433A6913433B613B691A
:10573C0023F4406323F00C033B613B6923F4704377
:10574C0023F0F0033B613B68DA683B68DB691B02C2
:10575C0013433A6913433B613B681B691A013B686D
:10576C001B6A1B0313433A6913433B61FB6823F029
:10577C002203FB603B685A683B685B691B0113435F
:10578C00FA681343FB607B681B687A699A607B68D4
:10579C001B683A699A617B681B68FA681A627B68B5
:1057AC00012283F846207B68012283F83E207B6827
:1057BC00012283F83F207B68012283F842207B681A
:1057CC00012283F843207B68012283F83D200023CB
:1057DC0018461837BD4680BD80B584B000AF7860E0
:1057EC0039607B6893F83E30FB737B6893F83F30ED
:1057FC00BB737B6893F842307B737B6893F84330C0
:10580C003B733B68002B10D1FB7B012B02D17B7BC4
:10581C00012B01D0012369E07B68022283F83E2032
:10582C007B68022283F8422031E03B68042B10D1C4
:10583C00BB7B012B02D13B7B012B01D0012355E01B
:10584C007B68022283F83F207B68022283F8432086
:10585C001DE0FB7B012B08D1BB7B012B05D17B7B96
:10586C00012B02D13B7B012B01D001233EE07B6855
:10587C00022283F83E207B68022283F83F207B685B
:10588C00022283F842207B68022283F843203B6883
:10589C00002B03D03B68042B08D00FE07B681B68FF
:1058AC0001220021184600F097FE16E07B681B6869
:1058BC0001220421184600F08FFE0EE07B681B6865
:1058CC0001220021184600F087FE7B681B6801222C
:1058DC000421184600F080FE00BF7B681B681A6824
:1058EC007B681B6842F001021A60002318461037CF
:1058FC00BD4680BD80B584B000AF78607B681B6806
:10590C00DB68FB607B681B681B69BB60BB6803F0D2
:10591C000203002B20D0FB6803F00203002B1BD0EA
:10592C007B681B686FF002021A617B6801221A7790
:10593C007B681B689B6903F00303002B03D078681A
:10594C0000F0BFFA05E0786800F0B2FA786800F071
:10595C00C1FA7B6800221A77BB6803F00403002BA2
:10596C0020D0FB6803F00403002B1BD07B681B6862
:10597C006FF004021A617B6802221A777B681B683D
:10598C009B6903F44073002B03D0786800F099FAFC
:10599C0005E0786800F08CFA786800F09BFA7B6878
:1059AC0000221A77BB6803F00803002B20D0FB6899
:1059BC0003F00803002B1BD07B681B686FF00802F8
:1059CC001A617B6804221A777B681B68DB6903F019
:1059DC000303002B03D0786800F073FA05E07868B5
:1059EC0000F066FA786800F075FA7B6800221A7786
:1059FC00BB6803F01003002B20D0FB6803F01003EE
:105A0C00002B1BD07B681B686FF010021A617B683F
:105A1C0008221A777B681B68DB6903F44073002B40
:105A2C0003D0786800F04DFA05E0786800F040FA91
:105A3C00786800F04FFA7B6800221A77BB6803F095
:105A4C000103002B0CD0FB6803F00103002B07D0E3
:105A5C007B681B686FF001021A61786800F01FFA0E
:105A6C00BB6803F08003002B0CD0FB6803F08003B1
:105A7C00002B07D07B681B686FF080021A61786876
:105A8C0000F035FEBB6803F04003002B0CD0FB6824
:105A9C0003F04003002B07D07B681B686FF04002BB
:105AAC001A61786800F028FABB6803F02003002B19
:105ABC000CD0FB6803F02003002B07D07B681B681D
:105ACC006FF020021A61786800F008FE00BF1037F2
